:020000040800F2
:10000000E8060020DD010008F32600085F23000851
:10001000F12600080B090008DD2E00080000000092
:10002000000000000000000000000000532700084E
:10003000010A0008000000001527000855270008E5
:10004000F7010008F7010008F7010008F7010008B0
:10005000F7010008F7010008F7010008F7010008A0
:10006000F7010008F7010008F7010008F701000890
:10007000F7010008F7010008F7010008F701000880
:10008000F7010008F7010008F70100080000000070
:10009000000000000000000000000000F701000860
:1000A000F7010008F7010008F7010008F701000850
:1000B000000000000000000000000000F701000840
:1000C000F7010008F7010008F7010008F701000830
:1000D000F7010008D12E0008F70100080000000019
:1000E000F7010008F7010008000000000000000010
:1000F000000000000000000000000000F701000800
:100100000000000000000000F701000800000000EF
:100110000000000000000000F701000800000000DF
:10012000F7010008F70100080D090008F7010008B1
:10013000F7010008000000000000000000000000BF
:1001400000000000000000000000000000000000AF
:10015000F7010008F7010008F7010008F70100089F
:10016000000000000000000000000000000000008F
:10017000000000000000000000000000000000007F
:10018000F7010008F701000800000000000000006F
:1001900000000000F701000800000000000000005F
:1001A000000000000000000000000000000000004F
:1001B000000000000000000000000000F70100083F
:1001C000F7010008F7010008DFF80CD000F060FB31
:1001D000004800477D340008E806002006488047B4
:1001E00006480047FEE7FEE7FEE7FEE7FEE7FEE71C
:1001F000FEE7FEE7FEE7FEE7F5270008C901000875
:100200002DE9F05F0546002092469B46884606464B
:10021000814640241BE0284641464746224600F0DE
:1002200030FA53465A46C01A914110D31146184627
:10023000224600F017FA2D1A67EB01084F462246B6
:100240000120002100F00EFA17EB00094E41201E9C
:10025000A4F10104DFDC484631462A464346BDE8A6
:10026000F09F40EA01039B0703D009E008C9121F71
:1002700008C0042AFAD203E011F8013B00F8013B60
:10028000521EF9D27047D2B201E000F8012B491E8C
:10029000FBD270470022F6E710B513460A46044623
:1002A0001946FFF7F0FF204610BD421C10F8011B55
:1002B0000029FBD1801A70472DE9FE4F804681EA64
:1002C0000300C00F0C46009021F0004123F00045D0
:1002D000B8EB0200A94105D24046214690461C4693
:1002E0000B46024623F00040104347D0270DC7F3CA
:1002F0000A00C3F30A510290401A019040286BDAB9
:10030000C3F3130040F4801B0098924620B10023F1
:10031000D2EB030A63EB0B0B01985946C0F1400284
:10032000504600F09FF906460D4650465946019A40
:1003300000F0B7F910EB08006141002487EA115280
:1003400084EAE7731A4340D0009A62B3019A012A03
:100350004FEA075215DC001B61EB02014FF000422F
:1003600002EA0752CDE90042001C41F580113246F5
:100370002B4600F0EEF903B0BDE8F08F4046214671
:10038000F9E7001B61EB0201001C41F58013001826
:100390005B412018A2F5001747EB030140EAD57036
:1003A000B6196D4111E06D084FEA360645EAC07591
:1003B0004FEA0752001B61EB0201001C41F580115E
:1003C00049084FEA30000019514132462B4603B02C
:1003D000BDE8F04F00F0AEB90098012240000023C4
:1003E000D0EB020263EBE073009821464FEAE07421
:1003F000B8EB000061EB0401E9E783F000435BE741
:1004000081F0004158E72DE9FE4F81EA030404F032
:10041000004421F0004100944FF0000B23F0004312
:1004200050EA01045ED052EA03045BD0C3F30A54DD
:10043000C1F30A552C44A4F2F3340194A0FB0254F6
:10044000C1F3130141F48011C3F3130343F4801388
:1004500001FB024400FB034E840A970A44EA8154DC
:1004600047EA8357A4FB076802958D0A05FB0785B9
:100470004FEA932C04FB0C542705029D4FEA0658C3
:1004800047EA1637B5EB08056EEB070C870E920EA0
:1004900047EA811742EA8312A7FB0201B6EB0B0180
:1004A00064EB00042B0D43EA0C335E1844EB1C5044
:1004B000DA465146E7FB0201C5F313044FEA0B335A
:1004C00043EA14534FEA0432019C43EA0603A4F1C1
:1004D0000C040294009CCDE900B400F03AF903B09A
:1004E000BDE8F08F00200146F9E72DE9F04D81EAE3
:1004F000030404F0004B21F0004514464FF0000ABD
:1005000023F0004150EA050220D054EA01021DD038
:10051000C5F30A570246C5F31303C1F31300C1F331
:100520000A5640F4801543F48013A7EB0608101B0D
:10053000D64608F2FD3873EB050002D308F1010836
:1005400001E092185B41B8F1000F03DA0020014688
:10055000BDE8F08D00204FF48011064684460EE081
:10056000171B73EB050705D3121B63EB050306434B
:100570004CEA010C49084FEA300092185B4150EAFE
:100580000107EDD152EA030012D082EA040083EAA7
:100590000501084305D0101BAB4106D20122002300
:1005A00006E000224FF0004302E06FF0010253101A
:1005B0001AEB06004CEB085110EB0A0041EB0B0163
:1005C000BDE8F04D00F0B6B870B5C1F30A5201F0C5
:1005D00000450024C1F3130140F2FF3341F48011C0
:1005E0009A4201DA002070BD40F233439A42A2F2EF
:1005F000334203DC524200F044F800E090402C43C8
:10060000F1D0404270BD00F0004230F000400AD00E
:10061000C10D01F56071C0F3160042EA0151C20834
:1006200040071143704700200146704701F0004326
:1006300030B421F0004150EA010206D00A0DA2F5C3
:100640006072C1F31301002A02DC30BC0020704745
:10065000440F44EAC104C100E01830BC00EBC250B2
:1006600000F031B8202A04DB203A00FA02F1002021
:1006700070479140C2F1200320FA03F319439040E0
:100680007047202A04DB203A21FA02F0002170474B
:1006900021FA02F3D040C2F12002914008431946EA
:1006A0007047202A06DBCB17203A41FA02F043EAD2
:1006B000E07306E041FA02F3D040C2F1200291401B
:1006C0000843194670470029A8BF7047401C4900DD
:1006D00008BF20F00100704710B4B0FA80FC00FAA7
:1006E0000CF050EA010404BF10BC704749B1CCF1D2
:1006F000200421FA04F411FA0CF118BF012121435E
:100700000843A3EB0C01CB1D4FEA00614FEA102018
:1007100042BF002010BC704700EBC35010440029BA
:10072000A4BF10BC7047401C490008BF20F0010066
:1007300010BC704710B5141E73F1000408DA401C99
:1007400041F1000192185B411A4301D120F00100F0
:1007500010BD2DE9F04D92469B4611B1B1FA81F2E0
:1007600002E0B0FA80F220329046FFF77BFF0446A9
:100770000F4640EA0A0041EA0B0153465A46084335
:1007800013D0114653EA010019D0C8F14002504677
:10079000FFF777FF05460E46504659464246FFF79B
:1007A00061FF084305D0012004E020463946BDE83A
:1007B000F08D0020054346EAE0762C4337430A9843
:1007C0006305E40AA0EB08000022FD0A44EA47544E
:1007D0000A3002D500200146E9E7010510196941F8
:1007E000DDE9084500196941BDE8F04DA2E72DE9B2
:1007F000F04D00231A461B1A8A4103DB00200146F4
:10080000BDE8F08DC1F30A52C1F3130141F4801524
:100810004FF0000BD10702D100186D41521E002786
:10082000044640F2FF11384601EB620A3E4680461C
:10083000024600204FF48011FFF723FFC2197141D7
:10084000BB1846EB0100B4EB030C75EB000C04D3B2
:10085000E41A65EB000517460E46241908F101005D
:100860006D4180463428E3DDF91946EB0600091B8B
:10087000A84103D24FF0FF32134601E00022134695
:100880001BEB070046EB0A51BDE8F04DFFF752BFE6
:10089000064C074D06E0E06840F0010394E80700CD
:1008A00098471034AC42F6D3FFF792FC583B00084F
:1008B000783B000870B58C1810F8015B15F0070341
:1008C00001D110F8013B2A1106D110F8012B03E0E9
:1008D00010F8016B01F8016B5B1EF9D12B0705D4F1
:1008E0000023521E0DD401F8013BFAE710F8013B3A
:1008F000CB1A921C03E013F8015B01F8015B521E56
:10090000F9D5A142D8D3002070BDFEE7014800F020
:10091000AFB900008802002001681823CAB2103A5B
:10092000B2FBF3F2054B6FF30901032A9B5CC3652D
:1009300000D9091D8165084670470000E63A0008A5
:1009400010B5014600208B698A6A4FF0C07453B11C
:10095000B3F5005F15D072B1012A0CD0022A0AD07B
:10096000032A09D104E01AB1012A06D0022A03D1D0
:10097000C96AC90100D5012010BDC96AA142FAD0D7
:1009800010BD002AF7D0012AF2D0022AF3D0032AA0
:10099000F3D010BD30B50468256825F480252560A6
:1009A000046863608368402B036803D09960006823
:1009B000C26030BD9A600068C16030BD0E480168F9
:1009C00021F080710160016841F0807101600B4885
:1009D000016821F001010160016841F0010101603D
:1009E0000021416000BF00BF00BF406808B1002087
:1009F0007047012070470000FCED00E0001000E0AF
:100A00007047704701688A69D243920701D4002277
:100A10008A6200688169C943C90703D0816941F0CE
:100A200001018161704700002DE9F0410446006832
:100A300090460E468069C043C0062ED4002520276C
:100A400020688069C043800611D5701CF8D02EB193
:100A500000F042FDA0EB0800B042F1D984F84170EB
:100A600084F8425084F840500320BDE8F0812168AA
:100A70001020C8612068C7612046FFF7C3FF54F803
:100A8000440B4168064A11404160042044F82009A3
:100A90006777A57725770120E7E70020E5E70000E5
:100AA00000E800FEF0B50568059C68684FF48066B4
:100AB000064FC1F3090106EA545641EA02413E439A
:100AC0001943B043214308436860F0BDFF63FF034F
:100AD0002DE9F0411D4617460E460446DDF8188004
:100AE00013E0681C11D02DB100F0F6FCA0EB08005B
:100AF000A8420AD9202084F84100002084F842004E
:100B000084F840000320BDE8F0812068806936EA5F
:100B1000000004D00020B842E3D00020F3E7012019
:100B2000F9E700002DE9F041002690460F46044603
:100B3000202532E0424639462046FFF775FF10B1C6
:100B40000120BDE8F08120688069C043800613D48D
:100B500020688169C943490701D4218D11BBC56152
:100B600054F8440B4168104A1140416044F8206930
:100B70006577A6772677E3E72FB100F0ADFCA0EB11
:100B80000800B84209D954F8440F40F0200044F856
:100B90000409657026700320D3E720688069C0438C
:100BA0004007C7D40020CCE700E800FE70B5164629
:100BB0000D4604461AE0324629462046FFF734FF28
:100BC00008B1012070BD25B100F086FC801BA84251
:100BD0000CD954F8440F40F0200044F804092020B8
:100BE00060700020A0702070032070BD20688069B4
:100BF000C0438006DFD4002070BD70B516460D4698
:100C000004461CE0324629462046FFF70DFF08B196
:100C1000012070BD681C12D025B100F05DFC801B66
:100C2000A8420CD954F8440F40F0200044F80409BD
:100C3000202060700020A0702070032070BD20680C
:100C40008069C0438007DDD4002070BD90F8351066
:100C5000022903D08021416501207047052180F8D9
:100C600035100068016821F0010101600020704723
:100C70002DE9F84304464FF00009CDF80090634891
:100C80004FF41651A56D0068B0FBF1F72E6894F88B
:100C90005C10082000FA01F131420FD021680A6887
:100CA00052070BD50A6822F004020A6094F85C101F
:100CB0008840A860606D40F00100606594F85C10A9
:100CC0004FF0010808FA01F0304208D02168496964
:100CD000090604D5A860606D40F00200606594F8D4
:100CE0005C1004208840304208D0216809688907D8
:100CF00004D5A860606D40F00400606594F85C1055
:100D000010208840304218D021680968090714D59E
:100D1000A86020680168490304D50068000308D56D
:100D2000A16C07E00168C90503D4016821F008013E
:100D30000160216C09B12046884794F85C1020209E
:100D40008840304231D021680968C9062DD5A86095
:100D500094F8350005282068016806D0490347D576
:100D6000006800031DD4616C1CE021F016010160D5
:100D70002068416921F080014161206C08B9A06CB4
:100D800020B12068016821F00801016094F85C102E
:100D90003F208840A86084F8349084F83580216D25
:100DA0001FE0E16B09B120468847606D00282BD019
:100DB000606DC00714D0052084F8350020680168F4
:100DC00021F0010101600098401C0090B84203D856
:100DD00020680068C007F6D184F8349084F8358024
:100DE000E16C002910D001B02046BDE8F04308476F
:100DF0000168C905D5D4016821F01001016084F8AB
:100E0000349084F83580CCE7BDE8F8832C010020CD
:100E10002DE9F041044600F05FFB06465CB1002579
:100E200084F83450022084F835002068016821F0ED
:100E3000010101600DE00120BDE8F08100F04CFBF4
:100E4000801B052805D920206065032084F8350023
:100E5000F2E720680068C007F0D1226811682048D6
:100E60000140D4E901031843D4E90336334318435E
:100E700063691843A3691843E3691843236A184355
:100E80000843616A042903D1D4E90B1319430843C9
:100E9000106020684069666A20F0070130460E4302
:100EA000012704280CD1A06A0643E06A40B120461D
:100EB000FFF746FD20B14020606584F83570BAE741
:100EC000206846612046FFF727FD94F85C203F210B
:100ED00091408160656584F835700020ACE70000C2
:100EE0003F8010F02DE9F0410446866D90F8340003
:100EF000002501280DD0012084F8340094F83570C5
:100F00000020012F07D084F8340002252846BDE8D0
:100F1000F0810220FBE7022784F8357060652046E7
:100F2000FFF738FD94F85C103F208840B0602068DF
:100F3000016841F0160101602068416941F08001BB
:100F40004161206C20B12068016841F00801016016
:100F50002068016841F001010160D7E770B50446DF
:100F600000F0BAFA0546601C02D004480078044438
:100F700000F0B2FA401BA042FAD370BD200100205D
:100F800090F84120202A24D190F84020012A20D036
:100F9000012280F84020242280F841200268136852
:100FA00023F0010313600268136823F48053136075
:100FB000026813680B43136001680A6842F001027B
:100FC0000A60202180F84110002180F84010084676
:100FD000704702207047000070B5040004D094F8F8
:100FE0004100002510B106E0012070BD84F840509A
:100FF000204600F07BF9242084F841002068016835
:1010000021F0010101606068216820F070600861D2
:101010002068816821F400418160E0680128A068AF
:1010200007D040F4044021688860E068022803D0BB
:1010300006E040F40040F6E721684FF400604860A5
:1010400020684168114A114341602068C16821F459
:101050000041C160D4E904010843A16940EA0120CC
:101060002168C860D4E90701084321680860206846
:10107000016841F0010101606564202084F84100AD
:10108000256384F84250002070BD000000800002FB
:101090002DE9F84F044690F84100DDF828A01F46DE
:1010A00090468B4620287DD194F84000012879D0C5
:1010B000012084F8400000F00FFA0646012200905B
:1010C0001923D1032046FFF703FD38BB222084F803
:1010D0004100102084F8420000256564C4F8248093
:1010E00067856563618D3448FF274FF080784FF046
:1010F0000079FF2903D927853A46009032E0618DB7
:101100002185009033E059462046FFF7CBFC32E0C2
:10111000FFF708FD18B1606C042848D019E020687A
:10112000416A606A421C62620170208D401E0004A8
:10113000000C2085618DA1F1010161851BD1608DBD
:10114000C8B153460022802120460096FFF7C0FC1C
:1011500010B10320BDE8F88F608DFF2804D92785E2
:101160003A4600954346CEE7608D2085009594F879
:1011700028204B46C7E7608D32460028514620465E
:10118000C6D1FFF713FD0028C5D121682020C86112
:1011900021684A68094B1A404A6084F8410084F883
:1011A000425000E005E084F840500020D2E70120E2
:1011B000D0E70220CEE700000024008000E800FE17
:1011C0002DE9F84F044690F84100DDF828A01F46AD
:1011D00090468B4620287CD194F8400001287FD08F
:1011E000012084F8400000F077F9064601220090C3
:1011F0001923D1032046FFF76BFC38BB212084F86C
:101200004100102084F8420000256564C4F8248061
:1012100067856563618D3348FF274FF080784FF015
:101220000079FF2903D927853A46009031E0618D86
:101230002185009032E059462046FFF733FC31E02B
:10124000FFF7DBFC18B1606C042847D018E0606A37
:10125000411C6162216800788862608D401E608553
:10126000208D401E0004000C20851BD1608DC8B16C
:1012700053460022802120460096FFF729FC10B13A
:101280000320BDE8F88F608DFF2804D927853A46F2
:1012900000954346CFE7608D2085009594F828207F
:1012A0004B46C8E7608D3246002851462046C7D1DC
:1012B000FFF77CFC0028C6D120682021C16120688E
:1012C0004368094A1340436084F8411084F842504F
:1012D00000E005E084F840500020D2E70120D0E78C
:1012E0000220CEE70020008000E800FE10B586B0A6
:1012F000044614216846FEF7CDFF14492068884251
:1013000021D11348016841F002010160006869467B
:1013100000F0020005904FF4404000901220019030
:10132000012002900320039004200490094800F05B
:1013300013F807481030016841F0807101600068BF
:1013400000F08070059006B010BD00000060004005
:1013500030380240000402402DE9F84FDFF84CB16C
:1013600000224FF001084FF0030A4FF00F090BF174
:10137000040E00BF0B6808FA02F42340A3427DD19B
:101380004D68022D01D0122D0ED1D50800EB850C31
:10139000DCF820505607F70E09FA07F6B5430E6938
:1013A000BE402E43CCF82060066855000F790AFA3B
:1013B00005FC07F0030726EA0C06AF403743076039
:1013C0004E68012E05D0022E03D0112E01D0122E10
:1013D0000ED18768CE6827EA0C07AE403E43866090
:1013E0004668A6430C79C4F3001494403443446027
:1013F000C4688E6824EA0C04AE402643C6604C687C
:10140000E4004DD52A4C256845F4804525602468C4
:1014100022F0030504F480440094264C2E19D6F8DB
:10142000084895072F0F09FA07F5AC43224DA8424B
:1014300001D100250AE0214DA84201D1012505E096
:101440001F4DA84201D1022500E00725BD402543DC
:10145000C6F80858DBF800405D464E689C43F6032A
:1014600000D51C432C60DEF8004075464E689C4356
:10147000B60300D51C432C600C4D00E010E008358D
:101480002C684E689C43F60200D51C432C60074D27
:101490000C352C684E689C43B60200D51C432C606A
:1014A000521C102AFFF466AFBDE8F88F003C0140E3
:1014B0004438024000300140000002400004024075
:1014C0000008024042694A40426170470AB18161A6
:1014D00070470904FBE7000001488068704700007E
:1014E0002001002002488168027811448160704721
:1014F000200100200B4810B5016841F40071016023
:10150000016841F480610160016841F4807101600B
:10151000032000F06DF8002000F006F800F024F839
:10152000002010BD003C024070B50D4D04464FF444
:101530007A712878B1FBF0F00A490968B1FBF0F044
:1015400000F0F3FB48B9102C07D200222146501EB0
:1015500000F02EF800206C6070BD012070BD00000E
:10156000200100202C0100200A4808B5016841F440
:1015700080410160006800F4804000900548001F31
:10158000016841F080510160006800F080500090D7
:1015900008BD00004438024000F01F0201219140C4
:1015A0004009800000F1E020C0F800117047000001
:1015B000F0B40E4B1B680C46C3F30223C3F10705BE
:1015C000042D00D90425191D072901D2002300E0AC
:1015D000DB1E012606FA05F1491E214099409E4076
:1015E000761E16403143F0BC01F084B80CED00E0EB
:1015F000064900F0070208684FF6FF03184040EA6A
:101600000220034A10430860704700000CED00E020
:101610000000FA05F8B504460078400751D5404867
:101620000026016841F08051016000683D4D00F0E6
:1016300080500090286840F480702860FFF74CFFCD
:10164000074604E0FFF748FFC01B022823D828689C
:10165000C005F7D5324D3035286810F440701FD0E2
:10166000218901F4407181421AD02868012220F4B6
:1016700040712D480260066029602868C0070FD0BD
:10168000FFF72AFF064641F2883706E0FFF724FFFE
:10169000801BB84201D90320F8BD28688007F5D522
:1016A000A1681F48C1F301223838032A30D00168ED
:1016B00021F4F811016028682189C1F30B01084366
:1016C00028602078800703D51849207DC1F8E00103
:1016D00020780107164805D50168226921F44001E8
:1016E000114301602178C90605D50168E26821F03F
:1016F0004041114301602078C00707D00C480838EA
:101700000168626821F0C061114301600020F8BDEA
:101710000268084B22F4F81219400A430260CAE733
:101720004038024000700040400E474200104742DF
:1017300094380240FFFCFF0F2DE9F0470E460500EC
:1017400065D0DFF81481D8F80000F7B200F00F0080
:10175000B04207D288F80070D8F8000000F00F00FF
:10176000B04254D128683D4C810712D5400703D5BB
:10177000206840F4E05020602878000703D52068F6
:1017800040F4604020602068A96820F0F000084321
:1017900020602878C0072DD03049686808390128B2
:1017A00012D0022813D0032811D009688907002914
:1017B0002DDA216821F0030101432160FFF78CFE3F
:1017C000814641F2883A0EE009688903EFE709682B
:1017D0008901ECE7FFF780FEA0EB0901514502D932
:1017E0000320BDE8F0872068696800F00C00B0EBCA
:1017F000810FEFD1D8F80010404601F00F01B1423F
:1018000007D90770006800F00F00B04201D0012036
:10181000E7E72878400705D52068E96820F4E0501C
:10182000084320602878000706D52068296920F43D
:10183000604040EAC100206000F036F82168084AA4
:10184000C1F30311515CC840064908600020FFF74E
:101850006BFE0020C5E70000003C02400838024053
:10186000EE3A00082C010020044805490068096888
:10187000044AC1F38221515CC84070472C0100200A
:1018800008380240FE3A0008044805490068096823
:10189000044AC1F34231515CC84070472C0100201A
:1018A00008380240FE3A0008154810B5006810F0EC
:1018B0000C02144813D01449042A0FD0082A0ED160
:1018C0000F4C241F2268236802F03F025B0207D5F9
:1018D0002068C0F38810A0FB010106E0084610BD97
:1018E0002168C1F38811A1FB00010023FEF788FCE9
:1018F0002168C1F30141491C4900B0FBF1F010BD62
:10190000083802400024F40040787D012DE9F84FAA
:1019100005460078DFF800B3C04CC0074AD0DBF8BA
:1019200000105846C1F38101012908D00068C0F3B6
:10193000810002280AD1201D0068400206D52068D7
:10194000800337D56868002872D033E06868B0F546
:10195000803F10D0B0F5A02F206810D020F4803048
:101960002060206820F4802020606868A8B1FFF71C
:10197000B3FD06460DE0206840F48030F4E740F403
:1019800080202060F7E700BFFFF7A6FD801B6428DA
:101990006FD820688003F7D50CE0FFF79DFD064661
:1019A00005E000BFFFF798FD801B6428F0D8206891
:1019B0008003F7D42878DFF8688280074FF00009A9
:1019C00040D5DBF80010584611F00C0F09D0006824
:1019D000C0F3810002280BD18F48001F006840022D
:1019E00006D42068800715D5E868012820D111E0C9
:1019F000E868B8B10120C8F80000FFF76DFD0646A1
:101A000005E000BFFFF768FD801B0228C0D82068F2
:101A10008007F7D52068296920F0F80040EAC10066
:101A200020600FE0C8F80090FFF756FD064606E07C
:101A3000EFE000BFFFF750FD801B022819D8206897
:101A40008007F7D42878000722D5734E7548696956
:101A50006C3679B101210160FFF73EFD074604E0D5
:101A6000FFF73AFDC01B022803D830688007F7D57E
:101A70000EE089E0C0F80090FFF72EFD074604E075
:101A8000FFF72AFDC01B02287ED830688007F7D4F4
:101A90002878400768D5DFF880A100270AF1380AC6
:101AA000DAF80000C0000BD4DAF8001041F08051E1
:101AB000CAF80010DAF80000012700F0805000900A
:101AC000594E3068C00510D4306840F480703060E2
:101AD000FFF702FD009005E0FFF7FEFC0099401AB9
:101AE000022851D83068C005F6D54B4EA868683634
:101AF00001280FD00528306810D020F00100306098
:101B0000306820F004003060A868B8B1FFF7E4FC4A
:101B100000900FE0306840F00100F4E740F004006E
:101B20003060F7E7FFF7D8FC0099411A41F288309E
:101B3000814266D830688007F4D50EE0FFF7CCFC10
:101B4000009007E0FFF7C8FC0099411A41F2883085
:101B5000814256D830688007F4D42FB1DAF80010EB
:101B600021F08051CAF80010A869D0B3DBF800104A
:101B7000C1F3810102294CD00228484607D0C8F899
:101B80006000FFF7A9FC00E03BE005463CE047466B
:101B9000C8F86000FFF7A0FC064604E0FFF79CFCD5
:101BA000801B02282DD820688001F7D4F5E90701B1
:101BB0000843E9681D4A490802EB0141AA6841EA65
:101BC00082110843297C40EA0160297D40EA0171C5
:101BD0001148001F016001203866FFF77DFC0546B3
:101BE00005E014E0FFF778FC401B022809D82068C4
:101BF0008001F7D50BE000BFFFF76EFC401B022809
:101C000002D90320BDE8F88F20688001F4D40020B9
:101C1000F8E70120F6E700000838024000380240EB
:101C200000004742800E4742007000400000FFFF66
:101C300070B5040002D0607F10B106E0012070BDD5
:101C400000202077204600F049F8022060772168C4
:101C5000CA204862216853204862204600F05CFD9B
:101C6000FF25042618BB206881681B4A114081604B
:101C70002168886862681043D4E904231A4310433A
:101C800088602168E068086120680169228941EA6A
:101C9000024101612068C16821F08001C1602068B3
:101CA0008068800607D4204600F024F818B1206828
:101CB00045626677C2E72068016C21F480210164E7
:101CC0002068016CA269114301642068456201200B
:101CD0006077002070BD0000BFFF8FFF00680349E0
:101CE000884202D102490120086070470028004064
:101CF0003C0E474270B504460068C16821F0A0015F
:101D0000C160FFF7E9FB05464FF47A7607E000BFB4
:101D1000FFF7E2FB401BB04201D9032070BD2068F1
:101D2000C0688006F4D5002070BD10B5401EB0F12B
:101D3000807F01D3012010BD4FF0E02460610F21AE
:101D4000601700F0D7FC0020A06107202061002070
:101D500010BD10B590F83820012A25D0012280F856
:101D60003820CA688C6822F4407222434C6822F4FE
:101D7000806222430C6822F4006222430C6922F440
:101D8000805222434C6922F4005222438C6922F48F
:101D90008042224322F4004102680023214351641F
:101DA00080F83830002010BD022010BD30B590F80A
:101DB0003820012A20D0012280F83820022380F820
:101DC000393003685C6824F070045C6003685C6808
:101DD0000D682C435C6003689C6824F080049C6060
:101DE00003689C6849680C439C6080F83920002196
:101DF00080F83810084630BD022030BD10B586B0DE
:101E0000044614216846FEF745FA0E4920688842C8
:101E100016D10D480021026842F0010202600068FC
:101E200000F0010005904FF4706000900220CDE9B1
:101E300001010120CDE9031069460448FFF78CFA3F
:101E400006B010BD000001403038024000000240E2
:101E500070B5044690F838000D4601280DD00126D3
:101E600084F83860022084F8390042B1042A18D07E
:101E7000082A2AD00C2A4DD139E0022070BD2068F2
:101E800000F01CFD2068816941F008018161206833
:101E9000816921F004018161206881692A69114307
:101EA00011E0206800F032FD2068816941F4006192
:101EB00081612068816921F4806181612068816984
:101EC0002A6941EA0221816124E0206800F04AFD8C
:101ED0002068C16941F00801C1612068C16921F031
:101EE0000401C1612068C1692A69114311E02068B9
:101EF00000F064FD2068C16941F40061C16120689F
:101F0000C16921F48061C1612068C1692A6941EA1F
:101F10000221C16184F83960002084F8380070BD66
:101F200010B5040003D094F8390010B107E0012087
:101F300010BD002084F83800204600F00DF8022083
:101F400084F83900211D206800F07EFC012084F80F
:101F50003900002010BD000008B50068064988421D
:101F600008D10648016841F001010160006800F0F5
:101F70000100009008BD000000000140443802400C
:101F800010B504460068012200F08CFC0749206867
:101F9000884203D1416C41F40041416420680168EA
:101FA00041F001010160002010BD0000000001406F
:101FB0007047000070B5026804461068D168536924
:101FC00010F00F0F50D003F0010501F49076354367
:101FD0005DD0C20705D0CA0503D5E26B42F001020D
:101FE000E263420705D5DA0703D0E26B42F0020252
:101FF000E263820705D5DA0703D0E26B42F0040200
:10200000E263020705D5DA0703D0E26B42F008026B
:10201000E263E26B002A33D0800604D5880602D53D
:10202000204600F054FD20684069E16BC0F3801049
:10203000090700D428B3204600F032FD206841692A
:1020400049061AD5416921F040014161606BA0B198
:102050001B490165606BFEF7F9FD002810D0606B2D
:10206000016DBDE870400847830610D58B060ED57C
:102070002046BDE8704000F02ABD2046FFF798FFDB
:1020800070BD2046FFF794FF0020E06370BD03069B
:1020900006D50B0604D52046BDE8704000F0B4BE5E
:1020A0004006F3D54806F1D5D168204621F040011D
:1020B000D160202184F8391000F050F970BD000083
:1020C000012A000870B5040004D094F839000025F6
:1020D00010B106E0012070BD84F83850204600F0B1
:1020E00023F8242084F839002068C16821F40051C5
:1020F000C160204600F032FD2068016921F4904162
:1021000001612068416921F02A0141612068C168AC
:1021100041F40051C160E563202084F8390084F85F
:102120003A00002070BD000070B586B0064614214C
:102130006846FEF7AFF824493068884241D1234809
:102140000025016841F010010160006800F01000F6
:1021500005901E481438016841F0020101600068D2
:10216000694600F002000590C02000900220019016
:102170000120029003200390072004901448FFF7E9
:10218000EBF8154C134820604FF00060C4E90105DE
:102190004014C4E9035080106561C4E9065025620B
:1021A00020466562FEF734FE08B1FEF72AFC746330
:1021B000002211462520A663FFF7FAF92520FFF734
:1021C000EBF906B070BD0000001001404438024039
:1021D000000402404064024088020020F8B5044632
:1021E00090F83A0020283CD1C1B3BAB394F8380033
:1021F000012836D0012084F83800A162A28500258C
:10220000E563222084F83A00636B1748D863636B58
:1022100016481864636B1648D864606B13460565EE
:102220000846666B216802463046091DFEF75AFED5
:10223000206801684168009184F83850C16841F411
:102240008071C1602068416941F0010141612068ED
:10225000416941F0400141610020F8BDFFE70120E4
:10226000FBE70220F9E700005B2A0008972A000834
:10227000112A000810B50848FEF717F8064982B27F
:102280000A23A1F1400000F00CF8BDE81040022143
:102290000248FFF717B90000680200200000024062
:1022A00070472DE9F843044690F839001F4616465A
:1022B0000D46202850D1A5B19EB194F838000128D0
:1022C0004AD0012084F838004FF00008C4F83C8060
:1022D000212084F83900FFF7FFF8A6848146E684C0
:1022E00026E00120BDE8F883E08C401EE084A06871
:1022F0004B46B0F5805F4FF000024FF08001204662
:10230000009703D000F0B1FDE8B90DE000F0ADFD9D
:10231000C8B928882168C0F308004860206908B15E
:102320006D1C05E0AD1C03E0216815F8010B486049
:10233000E08C0028D8D14B4600224021204600974F
:1023400000F093FD08B10320CCE7202084F8390089
:1023500084F838800020C5E70220C3E77047FEE715
:102360007CB515468DF804000A200E46D024009056
:10237000012301AA21460648FEF722FF64200090AF
:102380002B46324621460248FEF782FE7CBD000005
:10239000340100201CB502238DF8040064208DF860
:1023A00005100090D02101AA0148FEF709FF1CBDCD
:1023B0003401002070B5044680216B20FFF7EAFF4E
:1023C0006420FEF7CBFD20782179402200F0070041
:1023D00002EA811101436B20FFF7DCFF6420FEF766
:1023E000BDFDE07800F007011A20FFF7D3FF607809
:1023F000182505EAC0011B20FFF7CCFFA07805EAED
:10240000C0011C20FFF7C6FF042000F095F8A1785A
:102410009FED150A154831B1012907D0022908D0CE
:1024200003290AD112E080ED030A06E0DFED100A6D
:1024300001E0DFED100AC0ED030A617849B101291E
:102440000AD002290BD003290DD10AE0DFED0A0AD8
:10245000F1E79FED0A0A04E09FED090A01E09FED14
:10246000090A80ED040A70BD00007A3D00000020DA
:102470000000FA3D00007A3E0000FA3E0000FA3B00
:1024800000007A3C0000FA3C10B586B004460122F8
:102490003A200DF10101FFF763FF9DF801000028CC
:1024A00034D0062201A93B20FFF75AFF9DF8050012
:1024B0009DF80410062200EB012020809DF8070003
:1024C0009DF8061000EB012060809DF809009DF842
:1024D000081000EB0120A08003A94320FFF740FF74
:1024E0009DF80D009DF80C1000EB012108480180BB
:1024F0009DF80F109DF80E2001EB022141809DF800
:1025000011109DF8102001EB0221818006B010BD52
:102510001400002003490A8802804A884280898882
:10252000818070471400002001464C220148FDF7CD
:1025300098BE00003401002001461920FFF72ABF91
:102540000C4810B50A4901600B4941600021012285
:10255000C0E90212016141618161C1610162FEF75E
:102560003BFDBDE8104000210248FEF709BD000018
:1025700000600040800100205D3E30202DE9F047E2
:1025800086B014216846FDF785FE2C4800240168BA
:1025900041F004010160016801F004010591016846
:1025A00041F080010160016801F08001059101683E
:1025B00041F001010160016801F00101059101682C
:1025C00041F0020101600068DFF8748000F0020051
:1025D0004FF400550590002229464046FEF776FF4D
:1025E000DFF8609041F2F306002231464846FEF7DC
:1025F0006DFFDFF854A043F22717002239465046FA
:10260000FEF764FF00950125CDE901546946404677
:102610000394FEF7A1FE0096CDE9015469464846B1
:102620000394FEF799FE0097CDE9015469465046A0
:102630000394FEF791FE06B0BDE8F0873038024003
:1026400000080240000002400004024030B591B092
:1026500000240E941C2168460F94FDF71BFE1C21DC
:1026600007A8FDF717FE21481F496025C0E900159E
:102670006421C0E9024104614461FFF751FC0E94FA
:102680000EA91A480F94FFF791FB32200095CDE96F
:1026900001040394049405940022694613480694A7
:1026A000FFF7D6FB042269461048FFF7D1FB08224A
:1026B00069460E48FFF7CCFB0C2269460B48FFF732
:1026C000C7FB0794089409944FF400500A94CDE98D
:1026D0000B4007A905480D94FFF73BFB0348FFF7A4
:1026E0008DFB11B030BD000000000140EC01002066
:1026F000FEE770470907090E002806DA00F00F0010
:1027000000F1E02080F8141D704700F1E02080F80F
:10271000001470477047000070B504460068C16837
:10272000490614D44FF0FF31C160FEF7D5FE0546CF
:102730004FF47A7607E000BFFEF7CEFE401BB042B2
:1027400001D9032070BD2068C0684006F4D5002080
:1027500070BD7047FEF7C6BE30B599B034216846EB
:10276000FDF798FD14210DA8FDF794FD182112A87E
:10277000FDF790FD1D480024016841F08051016083
:10278000006800F0805018901948016841F44041F9
:1027900001600068022500F4404018900620009077
:1027A000012002900390102006950490CDE9074087
:1027B000C020CDE909050420CDE90B056846FFF7E7
:1027C000A5F80F20CDE90D05E802CDE90F40032162
:1027D0000DA81194FEF7B0FF0C201290E8011490A0
:1027E000169412A8FEF716FF19B030BD403802400B
:1027F000007000401048016841F4700101600F480A
:10280000016841F0010101600C4A002108321160A9
:1028100002680B4B1A400260031D0A4A1A600268E4
:1028200022F48022026005480C30016002495806FB
:10283000803908607047000088ED00E000380240F1
:10284000FFFFF6FE1030002430B50268114B124C29
:10285000984201D0A04203D122F070054A682A4371
:10286000984207D0A04205D00C4CA04202D00C4C9C
:10287000A04203D122F44074CA68224302608A68ED
:10288000C2620A688262984201D10969016301212A
:10289000416130BD00000140000C0040004001409B
:1028A0000048014010B50123046A8B409C43046238
:1028B000036A8A401343036210BD000030B5026A08
:1028C00022F001020262026A4368846924F07305FF
:1028D0000C682C4322F002058A682A430A4DA8425C
:1028E0000BD122F00805CA6823F440732A434D69CE
:1028F00022F004021D438B692B43436084614968C5
:102900004163026230BD00000000014030B5026A40
:1029100022F010020262026A436884690D6824F49E
:10292000E64444EA05248D6822F0200242EA0512BA
:102930000B4DA8420ED1CD6822F0800242EA05126A
:102940004D6923F4406343EA85038D6922F0400218
:1029500043EA85034360846149688163026230BD54
:102960000000014030B5026A22F480720262036AFC
:102970004268C46923F4007324F073050C682C4387
:102980008D6843EA05230C4DA8420ED1CD6823F48F
:10299000006343EA05234D6922F4405242EA0512DE
:1029A0008D6923F4806342EA05124260C46149687C
:1029B000C163036230BD00000000014030B5026A0F
:1029C00022F480520262046A4268C3690D6823F4EB
:1029D000E64343EA05238D6824F4005444EA0534B1
:1029E000064DA84204D14D6922F4804242EA851284
:1029F0004260C36149680164046230BD0000014067
:102A000010B5806B0021C185C184FFF7D1FA10BDDC
:102A100070B5846B2068406994F83910C0F3C01019
:102A20000025212904D118B1E584204600F046F89C
:102A30002068406994F83A10C0F38010222904D12C
:102A400018B1E585204600F02BF8E06B40F010004F
:102A5000E0632046FFF7ACFA70BD10B50146806B0D
:102A600009680968C90513D40021C1850168CA68CD
:102A700022F48072CA6001684A6922F001024A6148
:102A800001684A6922F040024A61202180F83A1028
:102A9000FFF7F0FB10BD10B5806BFFF701FC10BD18
:102AA0000168CA6822F49072CA6001684A6922F01B
:102AB00001024A61202180F83A1070470168CA6813
:102AC00022F0C002CA60202180F83910704710B58A
:102AD00090F83A10222901D0022010BD8168B1F58A
:102AE000805F11D00169002901681FD0496801F099
:102AF0007F03816A4A1C82620B70C18D491E0904E2
:102B0000090CC18518D026E00269816A002A026892
:102B1000526805D0D2B20A80816A491C8162ECE712
:102B2000C2F308020A80816A891CF7E74A68816A51
:102B30004B1C83620A70E0E70168CA6822F4907255
:102B4000CA6001684A6922F001024A61202180F8C6
:102B50003A10FFF78FFB002010BD00002DE9F04177
:102B600004460068016921F44052E16811430161A3
:102B70002168C86849F20C6290432369A268E5693C
:102B80001A4363692B431A430243CA6021684869A8
:102B900020F44072A06910434861E1696425B1F5F1
:102BA000004F9748974A21684FF032083FD0914232
:102BB00001D081427CD1FEF767FE00EBC00101EB42
:102BC000001061688900B0FBF1F6FEF75DFE00EBD6
:102BD000C00101EB001061688900B0FBF1F0B0FBAF
:102BE000F5F06FF01801484306EB800108EB011087
:102BF000B0FBF5F000F0F006FEF746FE00EBC0017A
:102C000001EB001061688900B0FBF1F0B0FBF5F05A
:102C100006EB0016FEF738FE00EBC00101EB0010DA
:102C200061688900B0FBF1F7FEF72EFED2E0914219
:102C300001D081423DD1FEF727FE00EBC00101EB40
:102C4000001061684900B0FBF1F0B0FBF5F006013F
:102C5000FEF71AFE00EBC00101EB001061684900AD
:102C6000B0FBF1F7FEF710FE00EBC00101EB001026
:102C700061684900B0FBF1F0B0FBF5F06FF01801AE
:102C8000484307EB800108EBC100B0FBF5F000F012
:102C9000F80006EB4006FEF7F7FD00EBC00101EB84
:102CA000001061684900B0FBF1F7FEF7EDFD3CE074
:102CB00055E0FEF7D9FD00EBC00101EB00106168A3
:102CC0004900B0FBF1F0B0FBF5F00601FEF7CCFDDA
:102CD00000EBC00101EB001061684900B0FBF1F7A7
:102CE000FEF7C2FD00EBC00101EB00106168490076
:102CF000B0FBF1F0B0FBF5F06FF01801484307EBC3
:102D0000800108EBC100B0FBF5F000F0F80006EB25
:102D10004006FEF7A9FD00EBC00101EB0010616861
:102D20004900B0FBF1F7FEF79FFD00EBC00101EB9E
:102D3000001061684900B0FBF1F0B0FBF5F06FF0F6
:102D40001801484307EB800108EBC100B0FBF5F028
:102D500000F00700216830448860BDE8F081FEF78C
:102D600083FD00EBC00101EB001061688900B0FB3E
:102D7000F1F6FEF779FD00EBC00101EB0010616890
:102D80008900B0FBF1F0B0FBF5F06FF0180148439B
:102D900006EB800108EB0110B0FBF5F000F0F00647
:102DA000FEF762FD00EBC00101EB001061688900D5
:102DB000B0FBF1F0B0FBF5F006EB0016FEF754FDAA
:102DC00000EBC00101EB001061688900B0FBF1F776
:102DD000FEF74AFD00EBC00101EB001061688900BD
:102DE000B0FBF1F0B0FBF5F06FF01801484307EBD2
:102DF000800108EB0110B0FBF5F000F00F00A9E72F
:102E0000001401400010014090F83910212901D030
:102E1000022070478168B1F5805F016A0BD04A1CBF
:102E20000262026809785160C18C491E0904090CCC
:102E3000C1840ED017E009880268C1F3080151600F
:102E400001690029016A02D0491C0162ECE7891C72
:102E5000FBE70168CA6822F08002CA600068C168A6
:102E600041F04001C160002070472DE9F0419846D3
:102E700017460E460446069D1DE0681C1BD02DB16A
:102E8000FEF72AFBA0EB0800A84214D92068C1680D
:102E900021F4D071C1602068416921F001014161D4
:102EA000202084F8390084F83A00002084F83800A3
:102EB0000320BDE8F0812068006836EA000004D0F5
:102EC0000020B842D9D00020F3E70120F9E7000044
:102ED0000148FFF76FB8000028020020FEE703B4A6
:102EE00001984100009850EAC12018BF04204A0D03
:102EF00018BF40F0010040F2FF72B2EB515F08BF13
:102F000040F00200012808BF052002B07047000011
:102F100070B5C1482DED020B2DED0E8B82B0119DC9
:102F200025F000449FEDBEDB9FEDBFEB84423EDB0E
:102F3000A4F140511098A1F17F6108430FD0BC4823
:102F4000844202DC28D1109830B39DED100B02B002
:102F5000BDEC0E8B02B0BDE8704000F042BA9DEDB2
:102F6000100B53EC1D2B51EC100BFDF74CFA9DEDA3
:102F7000100B41EC180B53EC1E2B51EC100BFDF712
:102F800042FA53EC182BFDF797F941EC100B02B005
:102F9000BDEC0E8B02B070BD012000F05DFA02B0F6
:102FA000BDEC0E8B02B0BDE8704000F025BAA14820
:102FB0009FEDA18B844256DA9DED100BB4F1795F41
:102FC0000ADA51EC100BFFF78AFF042808BF00F063
:102FD00023FA9DED100BDAE753EC102B51EC100B9C
:102FE000FDF711FA41EC190B95480621B0EE490A9C
:102FF000F0EE690A784400F078F953EC192B51ECA3
:10300000100BFDF700FA41EC1A0B8E48B0EE490A9E
:10301000F0EE690A0421784400F067F953EC192BAB
:1030200051EC100BFDF7EFF953EC182BFDF744F9B9
:1030300041EC100B51EC1A0B53EC102BFDF755FA29
:10304000CDE900019DED000B53EC102B9DED100B15
:1030500051EC100BFDF7D7F99DED101B53EC112B24
:10306000FDF72AF9D2E09DED100B51EC100B00F0AA
:10307000F9F953EC182BFDF7C3F99FED730BCDE96C
:10308000000153EC102B9DED000B51EC100BFDF7E4
:10309000BAF941EC190B6E480621B0EE490AF0EE80
:1030A000690A784400F021F953EC192B51EC100B0C
:1030B000FDF7A9F941EC1B0B6648B0EE490AF0EEAA
:1030C000690A0421784400F010F953EC192B51ECF3
:1030D000100BFDF798F953EC182BFDF7EDF841ECC8
:1030E0001C0B51EC190B00F0B8FC41EC180B5A48C2
:1030F0009FED5BABA04222DC53EC1C2B51EC1B0B75
:10310000FDF7F3F9CDE900019DED000B51EC180B33
:1031100053EC102BFDF777F953EC182BFDF7CCF897
:1031200053EC1A2BFDF76FF953EC1D2BFDF765F9E6
:1031300053EC1E2BFDF764F941EC100B5FE08DEDB5
:10314000008B002000909DED000B51EC180B53EC10
:10315000102BFDF7B1F89DED000B41EC1E0B53EC6D
:10316000102B51EC100BFDF74EF953EC192BFDF71A
:1031700047F953EC1E2BFDF7B8F941EC190B53EC52
:103180001C2B51EC1B0BFDF7B0F941EC1B0B53EC66
:103190001A2B51EC190BFDF736F953EC1D2BFDF7EB
:1031A0002FF941EC190B53EC1A2B51EC180BFDF7CE
:1031B0002AF953EC1B2BFDF726F953EC192BFDF7DD
:1031C0001CF99DED000B41EC180B53EC1A2B51EC44
:1031D000100BFDF718F99FED249B53EC192BFDF70D
:1031E0000FF941EC100B51EC180B53EC102BFDF7C1
:1031F00004F953EC192BFDF703F941EC100B002DEA
:103200003FF7C5AE51EC100B81F0004141EC100BC3
:10321000BDE60000000000000000F03F00000000DC
:10322000075C143326A6913C182D4454FB21F93F2A
:103230000000F07F0000E03F000000000000F03FD1
:10324000100B00001E0B0000000000000000E03F1B
:10325000620A0000700A00003333EF3F00000000F4
:103260000000000000000040182D4454FB21E93FFD
:1032700000B52DED048BB0EE409AF0EE609A83B06D
:1032800051EC190BFDF7B3FA41EC180B18EE100ACC
:1032900018EE901A8DED008B002818BF012008430E
:1032A00020F00040C0F17F6000F1E040C00F14D07A
:1032B00019EE101A19EE900A8DED009B002918BF27
:1032C0000121084320F00040C0F17F6000F1E040A0
:1032D000C00F04BF012000F0BFF8B0EE480A03B0F1
:1032E000F0EE680ABDEC048B00BD70B504462DED10
:1032F000028B4D1E00EBC500B0EE408AF0EE608AF6
:1033000090ED000B35F0060017D053EC182B51EC64
:10331000100BFDF778F841EC100B6D1E04EBC500A7
:1033200090ED001B51EC100B53EC112BFCF7C4FF7C
:1033300041EC100B35F00600E7D1022D36D0042DFC
:103340001CD0062D1CBFBDEC028B70BD53EC182B9E
:1033500051EC100BFDF757F894ED0A1B53EC112BB1
:10336000FCF7AAFF53EC182BFDF74DF894ED081B62
:1033700053EC112BFCF7A0FF41EC100B53EC182B76
:1033800051EC100BFDF73FF894ED061B53EC112B9D
:10339000FCF792FF53EC182BFDF735F894ED040B76
:1033A00053EC102BFCF788FF41EC100B53EC182B5F
:1033B00051EC100BFDF727F894ED021B53EC112B89
:1033C000FCF77AFF53EC182BFDF71DF894ED001B6A
:1033D00053EC112BFCF770FFBDEC028B41EC100B92
:1033E00070BD10B553EC102B51EC100BFCF764FFC3
:1033F00041EC100B10BD00009FED050B10B553EC18
:10340000102B51EC100BFDF770F841EC100B10BDB8
:1034100000000000000000009FED050B10B553EC0C
:10342000102B51EC100BFCF7EEFF41EC100B10BD14
:10343000000000000000001002E008C8121F08C1D0
:10344000002AFAD170477047002001E001C1121F25
:10345000002AFBD170470000014908607047000056
:103460003001002082B0CDE9000121F00040019040
:103470009DED000B02B051EC100B70472DED108B41
:103480008EB0FEF737F8FFF767F9FFF777F8FF48D8
:103490000026016841F4800101600068324600F4B2
:1034A0008000009031463A20FEF782F83A20FEF77D
:1034B00073F8F848F649C0E900167F218160FF21C2
:1034C000C0E9031646618661FEF7B2FBFFF738F8E4
:1034D000FFF7BCF8EF48F0495C3001604FF416513B
:1034E000C0E901160C21C660C0E904618661C661AD
:1034F000FEF7E8FD2022E94904A8FCF7B2FEE54901
:103500000A229C31A1F14000FEF768FEE1484C38E8
:10351000FFF70AF84FF001088DF80A808DF808606F
:103520008DF80B808DF809808DF80C6002A8FEF7ED
:1035300041FFD84800212030FEF722FDD548042164
:103540002030FEF71DFDD34808212030FEF718FD7E
:10355000D0480C212030FEF713FDD14DA5F1800499
:103560006E6466702E64FDF729FA9FEDCE0A84ED35
:10357000100A9FEDCD0A84ED110A9FEDCC0A84ED6F
:10358000120A9FEDCB8A312085ED158A85ED168ACA
:1035900085ED178A85ED188A85ED198A85ED1A8AD9
:1035A00085ED1B8A85ED1C8A85ED1D8A85ED008AD7
:1035B00085ED018A85ED028A9FEDBE0BA864FFF7B9
:1035C00057FE51EC100BFCF7FFFFE864FDF784FF9A
:1035D00004F1F80904F1FE0B9FEDB8CB9FEDB9EBB8
:1035E0009FEDBAFB9FEDBBDBDFF8A8A20AF1200A32
:1035F000DFEDBA8ABA4F2865012204213846FDF76B
:1036000065FFA7487830FEF73FFFB9F9001000EEDC
:10361000101AB8EEC00A84ED0A0AB9F9021000EED9
:10362000101AB8EEC00A84ED0B0AB9F9040000EED6
:10363000100A9B48B8EEC00A7E3084ED0C0AFEF7F3
:1036400069FFBBF9001000EE101AB8EEC00A85ED54
:10365000180AD4ED100A30EE600A84ED0D0ABBF9A9
:10366000021000EE901AF8EEE00AC5ED190A94ED8A
:10367000111A70EEC19AC4ED0E9ABBF9040000EE67
:10368000900A10EE100AF8EEE00AC5ED1A0A94ED61
:10369000121A30EEC19A84ED0F9AFCF7B4FF53EC86
:1036A0001C2BFCF722FFFCF7C1FF00EE100A19EEFD
:1036B000900A85ED150AD4ED130A30EE800A84EDE8
:1036C000130AFCF7A0FF53EC1C2BFCF70EFFFCF7D2
:1036D000ADFF00EE100A19EE100A85ED160AD4EDC2
:1036E000140A30EE800A84ED140AFCF78CFF53ECC8
:1036F0001E2BFCF7FAFEFCF799FF00EE100A85ED91
:10370000170AD4ED150A30EE800A84ED150A94EDFF
:103710000A0AD4ED0B0A20EE000A00EEA00AD4ED4E
:103720000C0A00EEA00A10EE100AFCF76CFF41EC48
:10373000100BFFF79DFD51EC100BFCF777FF00EE2F
:10374000900AC4ED190A94ED0B1A81EE200A10EECE
:10375000100AFCF758FF41EC100BFFF7D9FB53ECB4
:103760001F2B51EC100BFCF74EFEFCF75FFFA06522
:10377000D4ED0A0A94ED191A80EE810A10EE100AAF
:10378000FCF741FF41EC100BFFF7C2FB53EC1D2B84
:1037900051EC100BFCF737FEFCF748FFE065D4ED69
:1037A0000C0A94ED191A80EE810A10EE100AFCF74B
:1037B0002AFF41EC100BFFF7ABFB53EC1D2B51EC38
:1037C000100BFCF720FEFCF731FF06462066207840
:1037D000002849D0A06DFCF716FF9FED429B53ECEB
:1037E000192BFCF710FE41EC1B0BE06CFCF70BFFF8
:1037F0009FED3EAB53EC1A2BFCF705FE53EC1B2B55
:10380000FCF75AFDFCF712FFE064E06DFCF7FBFEED
:1038100053EC192BFCF7F7FD41EC1B0B206DFCF76B
:10382000F2FE53EC1A2BFCF7EEFD53EC1B2BFCF7CE
:1038300043FDFCF7FBFE20653046FCF7E4FE53EC4D
:10384000192BFCF7E0FD41EC190B606DFCF7DBFE7A
:1038500053EC1A2BFCF7D7FD53EC192BFCF72CFD7E
:10386000FCF7E4FE60650AE094ED160A84ED130AA5
:1038700094ED170A84ED140A666584F8008094EDCF
:10388000131A84ED1A1A94ED140A33E0303802400A
:1038900000280040CC01002000100140C83A000878
:1038A0009C00002000000CC30000344200008C4249
:1038B0000000000000000000008048404182E2C794
:1038C000984A7B404182E2C7984A7BC0D9CEF753E1
:1038D000E3A54C40D9CEF753E3A54CC00000AE425F
:1038E000000002409A9999999999B93FCDCCCCCCD6
:1038F000CCCCEC3F84ED1B0AD4ED150A30EE480A1F
:1039000031EE481A70EEA80AC4ED1C0A85ED038A50
:1039100085ED048A85ED058A70EEC81A84ED1D0ACE
:1039200084ED1E1AC4ED1F1AD4ED020A60EE800A5F
:10393000C5ED1B0A95ED002A72EE200AC5ED000ABE
:1039400094ED012AD4ED032A42EE000A95ED062AF1
:1039500030EE422A42EE820AC5ED090A85ED060ADA
:1039600094ED050A20EE010A85ED1C0A95ED012A69
:1039700032EE000A85ED010A94ED042AD4ED062A00
:1039800002EE010A95ED072A31EE422A02EE820A82
:1039900085ED0A0A85ED071A94ED081A21EE211A21
:1039A00085ED1D1A95ED022A32EE011A85ED021AF7
:1039B00094ED072AD4ED092A02EE211A95ED082A82
:1039C00031EEC22A02EE821A85ED0B1AC5ED081AF5
:1039D00070EEC01A71EEC11AC5ED0C1A70EE801AA5
:1039E00071EE811AC5ED0D1A70EE601AF1EE600AE3
:1039F00030EEC00A71EEC11A30EE010AC5ED0E1AA2
:103A000085ED0F0ADAF8002060885063DAF80020AC
:103A10009063DAF80010C8630864801C80B260808C
:103A20001E2801D11C2060804FF47A70FDF796FAB1
:103A3000FDF752FD296D401A962804D9012208216C
:103A40003846FDF743FDFDF747FD296D401A9628DE
:103A5000F9D3FDF741FD2865CEE500B52DED048BCA
:103A600083B041EC190BFCF7C2FE41EC180B18EEC9
:103A7000100A18EE901A8DED008B002818BF012057
:103A8000084320F00040C0F17F6000F1E040C00F2B
:103A900014D019EE101A19EE900A8DED009B002932
:103AA00018BF0121084320F00040C0F17F6000F101
:103AB000E040C00F04BF0120FFF7CEFC51EC180B13
:103AC00003B0BDEC048B00BD48656C6C6F20576F74
:103AD000726C640D0A00000000000000000000008D
:103AE000000000000000000610160006101600007E
:103AF000000000000000010203040607080900009E
:103B00000000010203040000555555555555C53FA9
:103B10007D6FEB0312D6D4BF5544880E55C1C93F03
:103B20003B8F68B52882A4BF88B20175E0EF493F9A
:103B300009F7FD0DE13D023F4B2D8A1C273A03C0DA
:103B4000C88A599CE52A004059018D1B6C06E6BFC6
:103B500082922EB1C5B8B33F783B00080000002028
:103B600034010000B40800088C3B00083401002038
:103B7000B405000048340008011E32020B20803FCB
:0C3B80000401DA320182105324F400002A
:04000005080001C925
:00000001FF
