:020000040800F2
:10000000E8050020DD0100080B200008CF1B0008D8
:10001000092000080D03000839270008000000002F
:100020000000000000000000000000006B2000083D
:10003000DD030008000000002D2000086D200008EE
:10004000F7010008F7010008F7010008F7010008B0
:10005000F7010008F7010008F7010008F7010008A0
:10006000F7010008F7010008F7010008F701000890
:10007000F7010008F7010008F7010008F701000880
:10008000F7010008F7010008F70100080000000070
:10009000000000000000000000000000F701000860
:1000A000F7010008F7010008F7010008F701000850
:1000B000000000000000000000000000F701000840
:1000C000F7010008F7010008F7010008F701000830
:1000D000F70100082D270008F701000800000000C4
:1000E000F7010008F7010008000000000000000010
:1000F000000000000000000000000000F701000800
:100100000000000000000000F701000800000000EF
:100110000000000000000000F701000800000000DF
:10012000F7010008F701000811030008F7010008B3
:10013000F7010008000000000000000000000000BF
:1001400000000000000000000000000000000000AF
:10015000F7010008F7010008F7010008F70100089F
:10016000000000000000000000000000000000008F
:10017000000000000000000000000000000000007F
:10018000F7010008F701000800000000000000006F
:1001900000000000F701000800000000000000005F
:1001A000000000000000000000000000000000004F
:1001B000000000000000000000000000F70100083F
:1001C000F7010008F7010008DFF80CD000F08CF808
:1001D0000048004759270008E805002006488047E6
:1001E00006480047FEE7FEE7FEE7FEE7FEE7FEE71C
:1001F000FEE7FEE7FEE7FEE70D210008C901000863
:100200002DE9F05F0546002092469B46884606464B
:10021000814640241BE0284641464746224600F0DE
:1002200053F853465A46C01A914110D31146184606
:10023000224600F03AF82D1A67EB01084F46224695
:100240000120002100F031F817EB00094E41201E7B
:10025000A4F10104DFDC484631462A464346BDE8A6
:10026000F09F40EA01039B0703D009E008C9121F71
:1002700008C0042AFAD203E011F8013B00F8013B60
:10028000521EF9D27047D2B201E000F8012B491E8C
:10029000FBD270470022F6E710B513460A46044623
:1002A0001946FFF7F0FF204610BD202A04DB203A54
:1002B00000FA02F1002070479140C2F1200320FAB9
:1002C00003F3194390407047202A04DB203A21FAB7
:1002D00002F00021704721FA02F3D040C2F120025F
:1002E0009140084319467047064C074D06E0E06808
:1002F00040F0010394E8070098471034AC42F6D36D
:10030000FFF766FFA4280008C4280008FEE70000E5
:10031000014800F09BB90000840100200168182307
:10032000CAB2103AB2FBF3F2054B6FF30901032A8C
:100330009B5CC36500D9091D8165084670470000B4
:100340008228000810B5014600208B698A6A4FF0A8
:10035000C07453B1B3F5005F15D072B1012A0CD04F
:10036000022A0AD0032A09D104E01AB1012A06D0D0
:10037000022A03D1C96AC90100D5012010BDC96A8A
:10038000A142FAD010BD002AF7D0012AF2D0022AE9
:10039000F3D0032AF3D010BD0E48016821F080711C
:1003A0000160016841F0807101600B48016821F033
:1003B00001010160016841F001010160002141601B
:1003C00000BF00BF00BF406808B100207047012097
:1003D00070470000FCED00E0001000E0704770473F
:1003E00001688A69D243920701D400228A620068B8
:1003F0008169C943C90703D0816941F00101816165
:10040000704700002DE9F0410446006890460E4612
:100410008069C043C0062ED400252027206880694B
:10042000C043800611D5701CF8D02EB100F006FD37
:10043000A0EB0800B042F1D984F8417084F8425032
:1004400084F840500320BDE8F08121681020C86185
:100450002068C7612046FFF7C3FF54F8440B41688A
:10046000064A11404160042044F820096777A577C7
:1004700025770120E7E70020E5E7000000E800FE1F
:10048000F0B50568059C68684FF48066064FC1F3B7
:10049000090106EA545641EA02413E431943B0437A
:1004A000214308436860F0BDFF63FF032DE9F0417D
:1004B0001D4617460E460446DDF8188013E0681CFA
:1004C00011D02DB100F0BAFCA0EB0800A8420AD967
:1004D000202084F84100002084F8420084F8400085
:1004E0000320BDE8F0812068806936EA000004D06E
:1004F0000020B842E3D00020F3E70120F9E7000034
:100500002DE9F041002690460F460446202532E0B2
:10051000424639462046FFF775FF10B10120BDE87D
:10052000F08120688069C043800613D42068816907
:10053000C943490701D4218D11BBC56154F8440B4F
:100540004168104A1140416044F820696577A677F8
:100550002677E3E72FB100F071FCA0EB0800B8426A
:1005600009D954F8440F40F0200044F8040965709C
:1005700026700320D3E720688069C0434007C7D4B2
:100580000020CCE700E800FE70B516460D46044694
:100590001AE0324629462046FFF734FF08B1012011
:1005A00070BD25B100F04AFC801BA8420CD954F85C
:1005B000440F40F0200044F804092020607000201F
:1005C000A0702070032070BD20688069C043800641
:1005D000DFD4002070BD70B516460D4604461CE001
:1005E000324629462046FFF70DFF08B1012070BDB5
:1005F000681C12D025B100F021FC801BA8420CD948
:1006000054F8440F40F0200044F8040920206070A2
:100610000020A0702070032070BD20688069C04356
:100620008007DDD4002070BD90F83510022903D07A
:100630008021416501207047052180F83510006850
:10064000016821F001010160002070472DE9F843A5
:1006500004464FF00009CDF8009063484FF416515E
:10066000A56D0068B0FBF1F72E6894F85C100820C7
:1006700000FA01F131420FD021680A6852070BD508
:100680000A6822F004020A6094F85C108840A860AE
:10069000606D40F00100606594F85C104FF0010857
:1006A00008FA01F0304208D021684969090604D5EA
:1006B000A860606D40F00200606594F85C10042052
:1006C0008840304208D021680968890704D5A860AD
:1006D000606D40F00400606594F85C101020884064
:1006E000304218D021680968090714D5A86020682D
:1006F0000168490304D50068000308D5A16C07E030
:100700000168C90503D4016821F008010160216C6A
:1007100009B12046884794F85C1020208840304278
:1007200031D021680968C9062DD5A86094F8350034
:1007300005282068016806D0490347D500680003F2
:100740001DD4616C1CE021F0160101602068416934
:1007500021F080014161206C08B9A06C20B12068B3
:10076000016821F00801016094F85C103F20884086
:10077000A86084F8349084F83580216D1FE0E16B27
:1007800009B120468847606D00282BD0606DC007F6
:1007900014D0052084F835002068016821F001019B
:1007A00001600098401C0090B84203D8206800689F
:1007B000C007F6D184F8349084F83580E16C0029C4
:1007C00010D001B02046BDE8F04308470168C905D4
:1007D000D5D4016821F01001016084F8349084F8C8
:1007E0003580CCE7BDE8F883340000202DE9F041E6
:1007F000044600F023FB06465CB1002584F8345023
:10080000022084F835002068016821F001010160B0
:100810000DE00120BDE8F08100F010FB801B0528F1
:1008200005D920206065032084F83500F2E72068B0
:100830000068C007F0D12268116820480140D4E95F
:1008400001031843D4E9033633431843636918435B
:10085000A3691843E3691843236A18430843616A8C
:10086000042903D1D4E90B1319430843106020680D
:100870004069666A20F0070130460E4301270428CC
:100880000CD1A06A0643E06A40B12046FFF75AFD4A
:1008900020B14020606584F83570BAE72068466171
:1008A0002046FFF73BFD94F85C203F21914081609A
:1008B000656584F835700020ACE700003F8010F0DB
:1008C00070B5044600F0BAFA0546601C02D0044830
:1008D0000078044400F0B2FA401BA042FAD370BD85
:1008E0002800002090F84120202A24D190F84020B0
:1008F000012A20D0012280F84020242280F84120C3
:100900000268136823F0010313600268136823F47C
:1009100080531360026813680B43136001680A6810
:1009200042F001020A60202180F84110002180F885
:1009300040100846704702207047000070B5040060
:1009400004D094F84100002510B106E0012070BDEC
:1009500084F84050204600F07BF9242084F84100C0
:100960002068016821F0010101606068216820F0C1
:10097000706008612068816821F400418160E0684E
:100980000128A06807D040F4044021688860E0682E
:10099000022803D006E040F40040F6E721684FF457
:1009A0000060486020684168114A11434160206836
:1009B000C16821F40041C160D4E904010843A16980
:1009C00040EA01202168C860D4E907010843216892
:1009D00008602068016841F0010101606564202021
:1009E00084F84100256384F84250002070BD000067
:1009F000008000022DE9F84F044690F84100DDF830
:100A000028A01F4690468B4620287DD194F84000B0
:100A1000012879D0012084F8400000F00FFA064642
:100A2000012200901923D1032046FFF73FFD38BB78
:100A3000222084F84100102084F8420000256564DB
:100A4000C4F8248067856563618D3448FF274FF0C3
:100A500080784FF00079FF2903D927853A46009026
:100A600032E0618D2185009033E059462046FFF742
:100A700007FD32E0FFF744FD18B1606C042848D050
:100A800019E02068416A606A421C62620170208D30
:100A9000401E0004000C2085618DA1F101016185DB
:100AA0001BD1608DC8B1534600228021204600969C
:100AB000FFF7FCFC10B10320BDE8F88F608DFF2824
:100AC00004D927853A4600954346CEE7608D2085B8
:100AD000009594F828204B46C7E7608D32460028E1
:100AE00051462046C6D1FFF74FFD0028C5D12168E9
:100AF0002020C86121684A68094B1A404A6084F87E
:100B0000410084F8425000E005E084F840500020A5
:100B1000D2E70120D0E70220CEE7000000240080C9
:100B200000E800FE2DE9F84F044690F84100DDF89A
:100B300028A01F4690468B4620287CD194F8400080
:100B400001287FD0012084F8400000F077F90646A4
:100B5000012200901923D1032046FFF7A7FC38BBE0
:100B6000212084F84100102084F8420000256564AB
:100B7000C4F8248067856563618D3348FF274FF093
:100B800080784FF00079FF2903D927853A460090F5
:100B900031E0618D2185009032E059462046FFF713
:100BA0006FFC31E0FFF717FD18B1606C042847D0E7
:100BB00018E0606A411C6162216800788862608D7B
:100BC000401E6085208D401E0004000C20851BD136
:100BD000608DC8B153460022802120460096FFF761
:100BE00065FC10B10320BDE8F88F608DFF2804D9A3
:100BF00027853A4600954346CFE7608D20850095CE
:100C000094F828204B46C8E7608D324600285146AC
:100C10002046C7D1FFF7B8FC0028C6D120682021A4
:100C2000C16120684368094A1340436084F8411059
:100C300084F8425000E005E084F840500020D2E7FC
:100C40000120D0E70220CEE70020008000E800FE6F
:100C500010B586B0044614216846FFF71BFB144903
:100C60002068884221D11348016841F002010160E7
:100C70000068694600F0020005904FF44040009083
:100C80001220019001200290032003900420049080
:100C9000094800F013F807481030016841F08071EE
:100CA0000160006800F08070059006B010BD000083
:100CB0000060004030380240000402402DE9F84F47
:100CC000DFF84CB100224FF001084FF0030A4FF05B
:100CD0000F090BF1040E00BF0B6808FA02F4234061
:100CE000A3427DD14D68022D01D0122D0ED1D50821
:100CF00000EB850CDCF820505607F70E09FA07F6D2
:100D0000B5430E69BE402E43CCF8206006685500FE
:100D10000F790AFA05FC07F0030726EA0C06AF4034
:100D2000374307604E68012E05D0022E03D0112EE6
:100D300001D0122E0ED18768CE6827EA0C07AE408C
:100D40003E4386604668A6430C79C4F30014944081
:100D500034434460C4688E6824EA0C04AE402643E1
:100D6000C6604C68E4004DD52A4C256845F48045A2
:100D70002560246822F0030504F480440094264C86
:100D80002E19D6F8084895072F0F09FA07F5AC4336
:100D9000224DA84201D100250AE0214DA84201D1EF
:100DA000012505E01F4DA84201D1022500E00725DD
:100DB000BD402543C6F80858DBF800405D464E6844
:100DC0009C43F60300D51C432C60DEF800407546BA
:100DD0004E689C43B60300D51C432C600C4D00E0CC
:100DE00010E008352C684E689C43F60200D51C4381
:100DF0002C60074D0C352C684E689C43B60200D51C
:100E00001C432C60521C102AFFF466AFBDE8F88F1B
:100E1000003C0140443802400030014000000240E4
:100E2000000402400008024042694A4042617047A3
:100E30000AB1816170470904FBE70000014880683E
:100E400070470000280000200248816802781144A1
:100E500081607047280000200B4810B5016841F4FC
:100E600000710160016841F480610160016841F432
:100E700080710160032000F06DF8002000F006F89A
:100E800000F024F8002010BD003C024070B50D4D6C
:100E900004464FF47A712878B1FBF0F00A490968EA
:100EA000B1FBF0F000F0F3FB48B9102C07D20022A0
:100EB0002146501E00F02EF800206C6070BD01200D
:100EC00070BD000028000020340000200A4808B54A
:100ED000016841F480410160006800F480400090A6
:100EE0000548001F016841F080510160006800F072
:100EF0008050009008BD00004438024000F01F02FE
:100F0000012191404009800000F1E020C0F800116B
:100F100070470000F0B40E4B1B680C46C3F302236D
:100F2000C3F10705042D00D90425191D072901D295
:100F3000002300E0DB1E012606FA05F1491E2140D0
:100F400099409E40761E16403143F0BC01F05EB8D9
:100F50000CED00E0064900F0070208684FF6FF03B9
:100F6000184040EA0220034A10430860704700001E
:100F70000CED00E00000FA05F8B5044600784007E3
:100F800051D540480026016841F080510160006859
:100F90003D4D00F080500090286840F4807028603B
:100FA000FFF74CFF074604E0FFF748FFC01B02288D
:100FB00023D82868C005F7D5324D3035286810F49D
:100FC00040701FD0218901F4407181421AD02868F5
:100FD000012220F440712D480260066029602868D3
:100FE000C0070FD0FFF72AFF064641F2883706E018
:100FF000FFF724FF801BB84201D90320F8BD286801
:101000008007F5D5A1681F48C1F301223838032AAB
:1010100030D0016821F4F811016028682189C1F3FA
:101020000B01084328602078800703D51849207DEC
:10103000C1F8E00120780107164805D5016822694A
:1010400021F44001114301602178C90605D50168EA
:10105000E26821F04041114301602078C00707D0C9
:101060000C4808380168626821F0C06111430160D2
:101070000020F8BD0268084B22F4F81219400A4318
:101080000260CAE74038024000700040400E47420C
:101090000010474294380240FFFCFF0F2DE9F04753
:1010A0000E46050065D0DFF81481D8F80000F7B2CD
:1010B00000F00F00B04207D288F80070D8F80000A6
:1010C00000F00F00B04254D128683D4C810712D582
:1010D000400703D5206840F4E050206028780007DE
:1010E00003D5206840F4604020602068A96820F0A3
:1010F000F000084320602878C0072DD03049686888
:101100000839012812D0022813D0032811D0096809
:10111000890700292DDA216821F0030101432160AC
:10112000FFF78CFE814641F2883A0EE00968890398
:10113000EFE709688901ECE7FFF780FEA0EB090102
:10114000514502D90320BDE8F0872068696800F0A6
:101150000C00B0EB810FEFD1D8F80010404601F041
:101160000F01B14207D90770006800F00F00B042CC
:1011700001D00120E7E72878400705D52068E96815
:1011800020F4E050084320602878000706D5206846
:10119000296920F4604040EAC100206000F036F880
:1011A0002168084AC1F30311515CC8400649086030
:1011B0000020FFF76BFE0020C5E70000003C024066
:1011C000083802408A2800083400002004480549F5
:1011D00000680968044AC1F38221515CC840704725
:1011E00034000020083802409A28000804480549C5
:1011F00000680968044AC1F34231515CC840704735
:1012000034000020083802409A280008154810B51C
:10121000006810F00C02144813D01449042A0FD0AF
:10122000082A0ED10F4C241F2268236802F03F02C7
:101230005B0207D52068C0F38810A0FB010106E01F
:10124000084610BD2168C1F38811A1FB00010023ED
:10125000FEF7D6FF2168C1F30141491C4900B0FBEC
:10126000F1F010BD083802400024F40040787D0100
:101270002DE9F84F05460078DFF800B3C04CC007F1
:101280004AD0DBF800105846C1F38101012908D08B
:101290000068C0F3810002280AD1201D00684002C6
:1012A00006D52068800337D56868002872D033E0FF
:1012B0006868B0F5803F10D0B0F5A02F206810D03E
:1012C00020F480302060206820F48020206068684E
:1012D000A8B1FFF7B3FD06460DE0206840F480306A
:1012E000F4E740F480202060F7E700BFFFF7A6FD99
:1012F000801B64286FD820688003F7D50CE0FFF7C7
:101300009DFD064605E000BFFFF798FD801B6428A1
:10131000F0D820688003F7D42878DFF86882800747
:101320004FF0000940D5DBF80010584611F00C0FC3
:1013300009D00068C0F3810002280BD18F48001F3C
:101340000068400206D42068800715D5E8680128A7
:1013500020D111E0E868B8B10120C8F80000FFF71B
:101360006DFD064605E000BFFFF768FD801B022803
:10137000C0D820688007F7D52068296920F0F800D8
:1013800040EAC10020600FE0C8F80090FFF756FD6A
:10139000064606E0EFE000BFFFF750FD801B022885
:1013A00019D820688007F7D42878000722D5734E13
:1013B000754869696C3679B101210160FFF73EFD1E
:1013C000074604E0FFF73AFDC01B022803D8306847
:1013D0008007F7D50EE089E0C0F80090FFF72EFDFA
:1013E000074604E0FFF72AFDC01B02287ED83068BC
:1013F0008007F7D42878400768D5DFF880A1002758
:101400000AF1380ADAF80000C0000BD4DAF800104C
:1014100041F08051CAF80010DAF80000012700F00E
:1014200080500090594E3068C00510D4306840F4A8
:1014300080703060FFF702FD009005E0FFF7FEFCD2
:101440000099401A022851D83068C005F6D54B4E95
:10145000A868683601280FD00528306810D020F021
:1014600001003060306820F004003060A868B8B136
:10147000FFF7E4FC00900FE0306840F00100F4E773
:1014800040F004003060F7E7FFF7D8FC0099411AFC
:1014900041F28830814266D830688007F4D50EE08A
:1014A000FFF7CCFC009007E0FFF7C8FC0099411A59
:1014B00041F28830814256D830688007F4D42FB189
:1014C000DAF8001021F08051CAF80010A869D0B3F2
:1014D000DBF80010C1F3810102294CD002284846F4
:1014E00007D0C8F86000FFF7A9FC00E03BE0054624
:1014F0003CE04746C8F86000FFF7A0FC064604E061
:10150000FFF79CFC801B02282DD820688001F7D4AF
:10151000F5E907010843E9681D4A490802EB014162
:10152000AA6841EA82110843297C40EA0160297DCA
:1015300040EA01711148001F016001203866FFF781
:101540007DFC054605E014E0FFF778FC401B02280F
:1015500009D820688001F7D50BE000BFFFF76EFCCB
:10156000401B022802D90320BDE8F88F20688001C3
:10157000F4D40020F8E70120F6E700000838024024
:101580000038024000004742800E47420070004091
:101590000000FFFF70B5040002D0607F10B106E0CC
:1015A000012070BD00202077204600F049F802207D
:1015B00060772168CA20486221685320486220462B
:1015C00000F036FDFF25042618BB206881681B4A01
:1015D000114081602168886862681043D4E904235F
:1015E0001A43104388602168E06808612068016937
:1015F000228941EA024101612068C16821F080012D
:10160000C16020688068800607D4204600F024F876
:1016100018B1206845626677C2E72068016C21F442
:10162000802101642068016CA26911430164206873
:10163000456201206077002070BD0000BFFF8FFF72
:1016400000680349884202D10249012008607047BE
:10165000002800403C0E474270B504460068C1684F
:1016600021F0A001C160FFF7E9FB05464FF47A764F
:1016700007E000BFFFF7E2FB401BB04201D90320A7
:1016800070BD2068C0688006F4D5002070BD10B51C
:10169000401EB0F1807F01D3012010BD4FF0E02447
:1016A00060610F21601700F0B1FC0020A0610720ED
:1016B0002061002010BD10B590F83820012A25D0F7
:1016C000012280F83820CA688C6822F440722243D4
:1016D0004C6822F4806222430C6822F400622243A8
:1016E0000C6922F4805222434C6922F400522243B6
:1016F0008C6922F48042224322F4004102680023D4
:101700002143516480F83830002010BD022010BD04
:1017100030B590F83820012A20D0012280F83820F6
:10172000022380F8393003685C6824F070045C6040
:1017300003685C680D682C435C6003689C6824F057
:1017400080049C6003689C6849680C439C6080F836
:101750003920002180F83810084630BD022030BD05
:1017600010B586B0044614216846FEF793FD0E4975
:101770002068884216D10D480021026842F001021B
:101780000260006800F0010005904FF47060009066
:101790000220CDE901010120CDE90310694604488A
:1017A000FFF78CFA06B010BD00000140303802404F
:1017B0000000024070B5044690F838000D4601283C
:1017C0000DD0012684F83860022084F8390042B137
:1017D000042A18D0082A2AD00C2A4DD139E0022038
:1017E00070BD206800F0EAFC2068816941F00801C2
:1017F00081612068816921F004018161206881692B
:101800002A69114311E0206800F000FD2068816919
:1018100041F4006181612068816921F48061816106
:10182000206881692A6941EA0221816124E02068F7
:1018300000F018FD2068C16941F00801C16120680D
:10184000C16921F00401C1612068C1692A6911439D
:1018500011E0206800F032FD2068C16941F40061A8
:10186000C1612068C16921F48061C1612068C169DA
:101870002A6941EA0221C16184F83960002084F8B4
:10188000380070BD10B5040003D094F8390010B1D1
:1018900007E0012010BD002084F83800204600F049
:1018A0000DF8022084F83900211D206800F058FC52
:1018B000012084F83900002010BD000008B5006840
:1018C0000649884208D10648016841F001010160DB
:1018D000006800F00100009008BD00000000014019
:1018E000443802407047000070B502680446106832
:1018F000D168536910F00F0F50D003F0010501F4C7
:10190000907635435DD0C20705D0CA0503D5E26B9A
:1019100042F00102E263420705D5DA0703D0E26B29
:1019200042F00202E263820705D5DA0703D0E26BD8
:1019300042F00402E263020705D5DA0703D0E26B46
:1019400042F00802E263E26B002A33D0800604D53D
:10195000880602D5204600F0E9FC20684069E16B6A
:10196000C0F38010090700D428B3204600F0D0FC53
:101970002068416949061AD5416921F04001416159
:10198000606BA0B11B490165606BFEF74DFE00283E
:1019900010D0606B016DBDE870400847830610D51C
:1019A0008B060ED52046BDE8704000F0BFBC204637
:1019B000FFF798FF70BD2046FFF794FF0020E0631B
:1019C00070BD030606D50B0604D52046BDE8704061
:1019D00000F048BE4006F3D54806F1D5D168204650
:1019E00021F04001D160202184F8391000F0EEF898
:1019F00070BD00000123000870B5040004D094F805
:101A00003900002510B106E0012070BD84F838507F
:101A1000204600F023F8242084F839002068C168AB
:101A200021F40051C160204600F0C6FC2068016925
:101A300021F4904101612068416921F02A0141614E
:101A40002068C16841F40051C160E563202084F83A
:101A5000390084F83A00002070BD000070B586B0EF
:101A6000064614216846FEF715FC24493068884272
:101A700041D123480025016841F010010160006850
:101A800000F0100005901E481438016841F0020172
:101A900001600068694600F002000590C0200090D7
:101AA000022001900120029003200390072004905F
:101AB0001448FFF703F9154C134820604FF00060FD
:101AC000C4E901054014C4E9035080106561C4E90C
:101AD0000650256220466562FEF788FE08B1FEF7D3
:101AE0007EFC7463002211462520A663FFF712FADC
:101AF0002520FFF703FA06B070BD0000001001407A
:101B00004438024000040240406402408401002046
:101B100070472DE9F843044690F839001F461646F1
:101B20000D46202850D1A5B19EB194F83800012867
:101B30004AD0012084F838004FF00008C4F83C80F7
:101B4000212084F83900FFF779F9A6848146E684DC
:101B500026E00120BDE8F883E08C401EE084A06808
:101B60004B46B0F5805F4FF000024FF080012046F9
:101B7000009703D000F0A7FDE8B90DE000F0A3FD49
:101B8000C8B928882168C0F308004860206908B1F6
:101B90006D1C05E0AD1C03E0216815F8010B4860E1
:101BA000E08C0028D8D14B460022402120460097E7
:101BB00000F089FD08B10320CCE7202084F839002B
:101BC00084F838800020C5E70220C3E77047FEE7AD
:101BD0007CB515468DF804000A200E46D0240090EE
:101BE000012301AA21460648FEF79CFF64200090CD
:101BF0002B46324621460248FEF7FCFE7CBD000023
:101C0000380000201CB502238DF8040064208DF8F4
:101C100005100090D02101AA0148FEF783FF1CBDEA
:101C20003800002070B5044680216B20FFF7EAFFE2
:101C30006420FEF745FE20782179402200F007005D
:101C400002EA811101436B20FFF7DCFF6420FEF7FD
:101C500037FEE07800F007011A20FFF7D3FF607825
:101C6000182505EAC0011B20FFF7CCFFA07805EA84
:101C7000C0011C20FFF7C6FF042000F0E9F8A1789E
:101C80009FED150A154831B1012907D0022908D066
:101C900003290AD112E080ED030A06E0DFED100A05
:101CA00001E0DFED100AC0ED030A617849B10129B6
:101CB0000AD002290BD003290DD10AE0DFED0A0A70
:101CC000F1E79FED0A0A04E09FED090A01E09FEDAC
:101CD000090A80ED040A70BD00007A3D0000002072
:101CE0000000FA3D00007A3E0000FA3E0000FA3B98
:101CF00000007A3C0000FA3C10B586B00446012290
:101D00003A200DF10101FFF763FF9DF80100002863
:101D100034D0062201A93B20FFF75AFF9DF80500A9
:101D20009DF80410062200EB012020809DF807009A
:101D30009DF8061000EB012060809DF809009DF8D9
:101D4000081000EB0120A08003A94320FFF740FF0B
:101D50009DF80D009DF80C1000EB01210848018052
:101D60009DF80F109DF80E2001EB022141809DF897
:101D700011109DF8102001EB0221818006B010BDEA
:101D8000140000201CB504466846FFF7B5FFBDF9F6
:101D9000000000EE100A0F48F8EEC00A90ED030AAA
:101DA00060EE800AC4ED000ABDF9020000EE900A60
:101DB000F8EEE00A60EE800AC4ED010ABDF9040005
:101DC00000EE900AF8EEE00A20EE800A84ED020AA6
:101DD0001CBD00000000002003490A8802804A88D8
:101DE0004280898881807047140000200CB503462A
:101DF0006846FFF7F1FFBDF9000000EE100A0F483A
:101E0000F8EEC00A90ED040A60EE800AC3ED000A05
:101E1000BDF9020000EE900AF8EEE00A60EE800ADA
:101E2000C3ED010ABDF9040000EE900AF8EEE00AE5
:101E300020EE800A83ED020A0CBD000000000020A5
:101E400001464C220148FEF70CBA00003800002081
:101E500001461920FFF7D6BE0C4810B50A490160AB
:101E60000B49416000210122C0E902120161416178
:101E70008161C1610162FEF761FDBDE81040002192
:101E80000248FEF72FBD00000060004084000020E3
:101E90005D3E30202DE9F04786B014216846FEF7FC
:101EA000F9F92C480024016841F00401016001683F
:101EB00001F004010591016841F0800101600168B1
:101EC00001F080010591016841F0010101600168A4
:101ED00001F001010591016841F002010160006813
:101EE000DFF8748000F002004FF4005505900022E6
:101EF00029464046FEF79CFFDFF8609041F2F3066A
:101F0000002231464846FEF793FFDFF854A043F223
:101F10002717002239465046FEF78AFF0095012513
:101F2000CDE90154694640460394FEF7C7FE00968A
:101F3000CDE90154694648460394FEF7BFFE009779
:101F4000CDE90154694650460394FEF7B7FE06B04A
:101F5000BDE8F0873038024000080240000002402F
:101F60000004024030B591B000240E941C21684654
:101F70000F94FEF78FF91C2107A8FEF78BF9214873
:101F80001F496025C0E900156421C0E902410461D0
:101F90004461FFF777FC0E940EA91A480F94FFF7DF
:101FA000B7FB32200095CDE9010403940494059415
:101FB0000022694613480694FFF7FCFB0422694699
:101FC0001048FFF7F7FB082269460E48FFF7F2FBBF
:101FD0000C2269460B48FFF7EDFB0794089409941F
:101FE0004FF400500A94CDE90B4007A905480D9421
:101FF000FFF761FB0348FFF7B3FB11B030BD0000F2
:1020000000000140F0000020FEE770470907090EBC
:10201000002806DA00F00F0000F1E02080F8141D1F
:10202000704700F1E02080F800147047704700000E
:1020300070B504460068C168490614D44FF0FF31FA
:10204000C160FEF7FBFE05464FF47A7607E000BF5D
:10205000FEF7F4FE401BB04201D9032070BD20689A
:10206000C0684006F4D5002070BD7047FEF7ECBE96
:1020700030B599B034216846FEF70CF914210DA84B
:10208000FEF708F9182112A8FEF704F91D480024EC
:10209000016841F080510160006800F080501890A4
:1020A0001948016841F4404101600068022500F4CC
:1020B00040401890062000900120029003901020CC
:1020C00006950490CDE90740C020CDE9090504201C
:1020D000CDE90B056846FFF7CBF80F20CDE90D05DC
:1020E000E802CDE90F4003210DA81194FEF7D6FFB9
:1020F0000C201290E8011490169412A8FEF73CFFF1
:1021000019B030BD403802400070004010480168EE
:1021100041F4700101600F48016841F00101016064
:102120000C4A00210832116002680B4B1A40026011
:10213000031D0A4A1A60026822F4802202600548E0
:102140000C30016002495806803908607047000071
:1021500088ED00E000380240FFFFF6FE103000245A
:1021600030B50268114B124C984201D0A04203D105
:1021700022F070054A682A43984207D0A04205D051
:102180000C4CA04202D00C4CA04203D122F440746B
:10219000CA68224302608A68C2620A688262984200
:1021A00001D1096901630121416130BD0000014095
:1021B000000C0040004001400048014030B5026A78
:1021C00022F001020262026A4368846924F0730506
:1021D0000C682C4322F002058A682A430A4DA84263
:1021E0000BD122F00805CA6823F440732A434D69D5
:1021F00022F004021D438B692B43436084614968CC
:102200004163026230BD00000000014030B5026A47
:1022100022F010020262026A436884690D6824F4A5
:10222000E64444EA05248D6822F0200242EA0512C1
:102230000B4DA8420ED1CD6822F0800242EA051271
:102240004D6923F4406343EA85038D6922F040021F
:1022500043EA85034360846149688163026230BD5B
:102260000000014030B5026A22F480720262036A03
:102270004268C46923F4007324F073050C682C438E
:102280008D6843EA05230C4DA8420ED1CD6823F496
:10229000006343EA05234D6922F4405242EA0512E5
:1022A0008D6923F4806342EA05124260C461496883
:1022B000C163036230BD00000000014030B5026A16
:1022C00022F480520262046A4268C3690D6823F4F2
:1022D000E64343EA05238D6824F4005444EA0534B8
:1022E000064DA84204D14D6922F4804242EA85128B
:1022F0004260C36149680164046230BD000001406E
:1023000010B5806B0021C185C184FFF7EBFA10BDC9
:102310000168CA6822F49072CA6001684A6922F0B2
:1023200001024A61202180F83A10704710B590F8F8
:102330003A10222901D0022010BD8168B1F5805FDA
:1023400011D00169002901681FD0496801F07F039D
:10235000816A4A1C82620B70C18D491E0904090CF6
:10236000C18518D026E00269816A002A0268526895
:1023700005D0D2B20A80816A491C8162ECE7C2F3BF
:1023800008020A80816A891CF7E74A68816A4B1C47
:1023900083620A70E0E70168CA6822F49072CA603A
:1023A00001684A6922F001024A61202180F83A104E
:1023B000FFF7AEFB002010BD2DE9F0410446006898
:1023C000016921F44052E168114301612168C86844
:1023D00049F20C6290432369A268E5691A43636974
:1023E0002B431A430243CA602168486920F44072B3
:1023F000A06910434861E1696425B1F5004F974831
:10240000974A21684FF032083FD0914201D0814273
:102410007CD1FEF7EBFE00EBC00101EB0010616820
:102420008900B0FBF1F6FEF7E1FE00EBC00101EB25
:10243000001061688900B0FBF1F0B0FBF5F06FF0BF
:102440001801484306EB800108EB0110B0FBF5F0E2
:1024500000F0F006FEF7CAFE00EBC00101EB001031
:1024600061688900B0FBF1F0B0FBF5F006EB0016F7
:10247000FEF7BCFE00EBC00101EB001061688900B3
:10248000B0FBF1F7FEF7B2FED2E0914201D08142FB
:102490003DD1FEF7ABFE00EBC00101EB001061681F
:1024A0004900B0FBF1F0B0FBF5F00601FEF79EFE2F
:1024B00000EBC00101EB001061684900B0FBF1F7CF
:1024C000FEF794FE00EBC00101EB001061684900CB
:1024D000B0FBF1F0B0FBF5F06FF01801484307EBEB
:1024E000800108EBC100B0FBF5F000F0F80006EB4E
:1024F0004006FEF77BFE00EBC00101EB00106168B7
:102500004900B0FBF1F7FEF771FE3CE055E0FEF745
:102510005DFE00EBC00101EB001061684900B0FBFB
:10252000F1F0B0FBF5F00601FEF750FE00EBC00144
:1025300001EB001061684900B0FBF1F7FEF746FEC1
:1025400000EBC00101EB001061684900B0FBF1F045
:10255000B0FBF5F06FF01801484307EB800108EB82
:10256000C100B0FBF5F000F0F80006EB4006FEF706
:102570002DFE00EBC00101EB001061684900B0FBCB
:10258000F1F7FEF723FE00EBC00101EB00106168DC
:102590004900B0FBF1F0B0FBF5F06FF018014843D3
:1025A00007EB800108EBC100B0FBF5F000F007007D
:1025B000216830448860BDE8F081FEF707FE00EB3B
:1025C000C00101EB001061688900B0FBF1F6FEF775
:1025D000FDFD00EBC00101EB001061688900B0FB5C
:1025E000F1F0B0FBF5F06FF01801484306EB800105
:1025F00008EB0110B0FBF5F000F0F006FEF7E6FD89
:1026000000EBC00101EB001061688900B0FBF1F044
:10261000B0FBF5F006EB0016FEF7D8FD00EBC001AD
:1026200001EB001061688900B0FBF1F7FEF7CEFD09
:1026300000EBC00101EB001061688900B0FBF1F014
:10264000B0FBF5F06FF01801484307EB800108EB91
:102650000110B0FBF5F000F00F00A9E700140140F5
:102660000010014090F83910212901D00220704754
:102670008168B1F5805F016A0BD04A1C0262026872
:1026800009785160C18C491E0904090CC1840ED01F
:1026900017E009880268C1F3080151600169002947
:1026A000016A02D0491C0162ECE7891CFBE7016862
:1026B000CA6822F08002CA600068C16841F0400127
:1026C000C160002070472DE9F041984617460E463C
:1026D0000446069D1DE0681C1BD02DB1FEF7AEFB25
:1026E000A0EB0800A84214D92068C16821F4D07179
:1026F000C1602068416921F001014161202084F816
:10270000390084F83A00002084F838000320BDE83E
:10271000F0812068006836EA000004D00020B8424A
:10272000D9D00020F3E70120F9E700000148FFF7C6
:10273000DBB800002C010020FEE702E008C8121FF1
:1027400008C1002AFAD170477047002001E001C19A
:10275000121F002AFBD170478CB0FEF77DFBFFF7FC
:1027600087FCFFF797FB35480024016841F480019E
:1027700001600068224600F480000A9021463A2059
:10278000FEF7C8FB3A20FEF7B9FB2E482C49C0E9FA
:1027900000147F218160FF21C0E90314446184613A
:1027A000FEF7F8FEFFF758FBFFF7DCFB254826494C
:1027B0005C3001604FF41651C0E901140C21C46073
:1027C000C0E904418461C461FFF716F91D484C3823
:1027D000FFF736FB01208DF822008DF820408DF8A0
:1027E00023008DF821008DF8244008A8FFF71AFA7D
:1027F000FDF7D2FD202215496846FDF732FD144C45
:1028000010480A230D2269465C30FFF782F911480F
:10281000FFF772FA0F48801DFFF7DEFA09489C3077
:10282000FFF7B0FA0748A830FFF7E0FA01220221CB
:102830002046FEF7FDFA00F00FF8E1E730380240DD
:1028400000280040D000002000100140642800084B
:10285000000002401A00002010210148FEF7E4BAEF
:102860000000024048656C6C6F205061756C0D0A69
:102870000000000000000000000000000000000058
:1028800000000006101600061016000000000000F0
:10289000000001020304060708090000000001020D
:1028A00003040000C42800080000002038000000D5
:1028B0003A270008FC28000838000020B005000076
:1028C0004A2700080000000000000000000000008F
:1028D00000000000000000000000000000000000F8
:1028E00000000000000000000000000001000000E7
:0C28F00010000000000000000024F400B4
:04000005080001C925
:00000001FF
